:100000000C946B000C94510C0C948D0C0C94880087
:100010000C9488000C9488000C9488000C94880040
:100020000C9488000C9488000C9488000C94880030
:100030000C9488000C94340C0C9488000C94880068
:100040000C9488000C9488000C9488000C94880010
:100050000C94880007634236B79BD8A71A396856B4
:1000600018AEBAAB558C1D3CB7CC5763BD6DEDFDDA
:10007000753EF6177231BF000000803F0800000097
:10008000BE922449123EABAAAA2ABECDCCCC4C3E8D
:1000900000000080BEABAAAAAA3E00000000BF007C
:1000A0000000803F0000000000084178D3BB438778
:1000B000D1133D190E3CC3BD4282AD2B3E68EC828C
:1000C00076BED98FE1A93E4C80EFFFBE01C4FF7F11
:1000D0003F000000000011241FBECFE5D8E0DEBFC6
:1000E000CDBF11E0A0E6B0E0E0EEF6E202C0059080
:1000F0000D92AE34B107D9F713E0AEE4B1E001C020
:100100001D92AB35B107E1F70E94EB0B0C946E1317
:100110000C9400001F93182F8A3019F48DE00E9470
:100120008A005D9BFECF1CB91F9108958BB3806F31
:100130008BBB8AB38F708ABBDB9ADB9A89B3DB985F
:10014000DB9ADB9A99B3DB9892959F70807F892B1D
:1001500008959BB39F70282F207F292B2BBBDB9A00
:10016000DB988295807F982B9BBBDB9ADB98089568
:100170008BBBDB9ADB9808950F931F93DF93CF938C
:100180000F92CDB7DEB78E010F5F1F4FD998DA9A65
:100190000E9496008983F80180818823BCF3DA9855
:1001A0008FEF8ABB0F90CF91DF911F910F91089530
:1001B000D99A0E94A9000E94BC0008958FEF8ABBC3
:1001C0008ABBD998DA98DB98DB9ADD9ADB980E9493
:1001D000BC0088E20E94A9000E94BC00D9988EE071
:1001E0000E94A9000E94BC00D99886E00E94A90044
:1001F0000E94BC000895D99882E00E94A9000E9444
:10020000BC000895D9988295880F880F807C860F4E
:10021000815C0E94A9000E94BC000895D99881E0E9
:100220000E94A9000E94BC0008951F93CF93DF9302
:10023000EC018881882351F010E00E94D8001F5FF4
:10024000FE01E10FF11D80818823B9F7DF91CF9185
:100250001F91089511B880E280B984E886BF08959F
:1002600094EA96BF06B607FEFDCF91B1987F98300D
:1002700011F081B1089590ED93B994E896BF06B658
:1002800007FEFDCF91B1987F983111F081B10895AB
:1002900083B984E886BF06B607FEFDCF81B1887FAB
:1002A000883211F081B1089584E986BF80E0089515
:1002B00094EA96BF06B607FEFDCF91B1987F9830BD
:1002C00011F081B1089590ED93B994E896BF06B608
:1002D00007FEFDCF91B1987F983111F081B108955B
:1002E00083B984E886BF06B607FEFDCF81B1887F5B
:1002F000883219F4442319F416C081B10895262FC9
:10030000E62FF72F94E8819183B996BF06B607FED2
:10031000FDCF81B1887F883211F081B108958E2F91
:10032000821B841780F384E986BF80E0089524EA65
:1003300026BF06B607FEFDCF21B1287F2830C9F7BA
:1003400021ED23B924E826BF06B607FEFDCF21B173
:10035000287F2034C9F7462F50E0415050401416F2
:100360001506ACF470E0A4ECA6BF06B607FEFDCF00
:1003700021B1287F2035C9F723B1FC01E70FF11D1A
:1003800020837F5F272F30E0241735076CF324E8A4
:1003900026BF06B607FEFDCF21B1287F2835C9F755
:1003A00023B1860F911DFC013197208384E986BF1C
:1003B00080E00895823061F0833018F4813069F470
:1003C00005C0833039F0843041F406C0AF9A05C0CF
:1003D000AE9A03C0AD9A01C0AC9A80913001982FBB
:1003E0009150943018F490E00E94210908958230D1
:1003F00061F0833018F4813069F405C0833039F03E
:10040000843041F406C0AF9805C0AE9803C0AD98E3
:1004100001C0AC9880913001982F9150943018F41D
:1004200090E00E942109089580E090E020E132E010
:1004300040E2F901E80FF91F40830196803A9105E7
:10044000C1F7089580E491E0909358038093570397
:1004500000D080E690E0ADB7BEB712969C938E9325
:1004600011970E948F108FE798E3A1E08150904090
:10047000A040E1F700C000000F900F90089580E4C5
:1004800091E090935803809357030E94220200D07A
:1004900084E690E0ADB7BEB712969C938E93119709
:1004A0000E948F108FEF90E7A2E081509040A04013
:1004B000E1F700C000008AE790E0ADB7BEB7129642
:1004C0009C938E9311970E948F100F900F906091C4
:1004D0005703709158038AE190E00E946310EFE1A6
:1004E000FEE43197F1F700C00000089580E491E048
:1004F00090935803809357030E94220200D084E611
:1005000090E0ADB7BEB712969C938E9311970E9460
:100510008F108FEF90E7A2E081509040A040E1F76C
:1005200000C000008BE890E0ADB7BEB712969C9378
:100530008E9311970E948F100F900F906091570328
:10054000709158038AE190E00E946310EFE1FEE4AD
:100550003197F1F700C0000085E0809359010895BC
:100560000E94220200D085EA90E0ADB7BEB7129695
:100570009C938E9311970E948F108FEF90E7A2E0CB
:1005800081509040A040E1F700C000000F900F9014
:10059000089580E491E0909358038093570300D02E
:1005A00080EB90E0EDB7FEB7928381830E948F10BD
:1005B0008FE19EE40197F1F700C000000F900F90CB
:1005C0000895CF92DF92EF92FF920F931F93DF93E4
:1005D000CF93CDB7DEB72A970FB6F894DEBF0FBE24
:1005E000CDBFDE011796CC24DD246894C1F8CC0E73
:1005F000DD1E80E090E003E611E0FF24F3946EE559
:1006000071E001969C01A801480F591FFA01408131
:10061000403F19F4F601F08202C0F6011082AB01EE
:10062000420F531FFA014081413F18F420812C935F
:1006300001C01C9211960894C11CD11C84309105F4
:1006400001F7E5B2F5B205B315B380E491E09093FC
:100650005803809357030E94220200D084E690E062
:10066000ADB7BEB712969C938E9311970E948F10D0
:100670008FEF90E7A2E081509040A040E1F700C0EA
:100680000000ADB7BEB790970FB6F894BEBF0FBECF
:10069000ADBFEDB7FEB731968BEB90E012969C9311
:1006A0008E93119781E090E0938382838E2D99271A
:1006B00087FD909580959095892F881F8827881FA2
:1006C000848315828F81868317828A818087118631
:1006D00082E090E09387828781E090E0F6FE02C09E
:1006E00080E090E0958784878885868717868B8150
:1006F000808B118A83E090E0938B828B81E090E085
:1007000005FF02C080E090E0958B848B8985868B05
:10071000178A8C81808F118E84E090E0938F828F76
:1007200081E090E014FF02C080E090E0958F848F1C
:100730008A85868F178E8D8180A311A20E948F10CB
:10074000EDB7FEB7B2960FB6F894FEBF0FBEEDBF81
:1007500060915703709158038AE190E00E94631002
:100760008FE19EE40197F1F700C000002A960FB6D2
:10077000F894DEBF0FBECDBFCF91DF911F910F91D7
:10078000FF90EF90DF90CF900895AB988FEF90E7B8
:10079000A2E081509040A040E1F700C00000AB9A79
:1007A00008953F924F925F926F927F928F929F92A5
:1007B000AF92BF92CF92DF92EF92FF920F931F936F
:1007C000CF93DF9382E391E0909358038093570394
:1007D00080914F0190E00497181619067CF580E08F
:1007E00090E040E050E060E172E0A8E6B1E0FB019B
:1007F000E80FF91F2081223211F44F5F5F4F48301C
:10080000510599F4223289F0203278F030914E016E
:100810003F5F30934E01FD01E30FF11D2083EFE5B3
:10082000FAEE3197F1F700C00000019620914F01D8
:1008300030E02450304082179307CCF280914E0173
:100840008530C1F4809169018336A1F480916A01F9
:10085000883681F480916B01853689F480916C0132
:10086000833669F480916D018B3689F40E94E10230
:100870000E94C50380914E01843008F4CFC080915E
:100880006A018E3621F480EF8093530106C086E61C
:1008900080936A018FE08093530140914E01433071
:1008A00008F1509150016091510123E088E691E0F8
:1008B000FC01E20FF11D30813A3269F45F5F513083
:1008C00049F0523041F4509350016093510120930C
:1008D000520108C0622F2F5F421750F7509350010A
:1008E0006093510180915001823009F070C03090C6
:1008F0005201341608F04CC0F0905401142F642EAD
:1009000077240F2EF8E64F2EF1E05F2EF02DC12F49
:10091000D0E0B3016C1B7D0B882777FD8095982F65
:100920000E94DC0D9B01AC0160E070E080E291E48C
:100930000E94CB0E062FE72E982E892E6F2D70E089
:10094000882777FD8095982F0E94DC0D5B016C0154
:10095000C40DD51D688170E060537040882777FD15
:100960008095982F0E94DC0D202F3E2D492D582D6B
:100970000E94680E9B01AC01C601B5010E94DD0C0E
:100980000E94AE0DF62E1150311608F260935401FC
:10099000109151011F5F809152011817A8F4C8E609
:1009A000D1E0FE01E10FF11D808190E060915301E3
:1009B00040915401C09770E050E00E9463051F5FB2
:1009C00080915201181768F30E94C50327C0813037
:1009D00029F5109151011F5F80914E018117E0F0C0
:1009E000C8E6D1E080915301803F41F4FE01E10F60
:1009F000F11D808180530E94F70109C08F3039F4C6
:100A0000FE01E10FF11D808180530E94DA011F5F1A
:100A100080914E01811730F70E94C50310924E015C
:100A200010924F01109250011092510110925201F8
:100A30001092530110925401DF91CF911F910F91A9
:100A4000FF90EF90DF90CF90BF90AF909F908F90EE
:100A50007F906F905F904F903F9008950E94140296
:100A60008FE097E20197F1F700C000000E94B0020A
:100A70008FEF99E6A8E181509040A040E1F700C0D7
:100A800000000E94D103AFE0B7E21197F1F700C078
:100A900000000E94C9028FE097E20197F1F700C0C1
:100AA000000082E391E090935803809357030895E8
:100AB000982F92959F70990F292F220F220F920F36
:100AC0008F70890F08959F92AF92BF92CF92DF925D
:100AD000EF92FF920F931F93DF93CF93CDB7DEB7C3
:100AE0002F970FB6F894DEBF0FBECDBF982EF894A7
:100AF00090E0FC01E25AFE4F4083FC01ED59FE4FAD
:100B00006083FE01E80FF91F4783638780910A0223
:100B10008F730E9458058B83FF246894F1F8EE24AC
:100B2000E3940F2EF8E0CF2EF2E0DF2EF02D5E01E1
:100B30000894A11CB11C02C0E394F394BE2DB23002
:100B4000D9F30E2D10E0F601E00FF11F80810E9415
:100B50005805F501E00FF11F8083EF2DE73060F3BA
:100B6000FE01389680E090E04EE551E00FEF63E63D
:100B700071E0282F2F5F2915B1F09C012F5F3F4FA7
:100B8000DA01A20FB31FAC91AA2359F0DA01A20F28
:100B9000B31FAC91A083260F371FD9012C9124835A
:100BA00002C000830483019631968430910509F7D1
:100BB000EE24FF246894E1F8EC0EFD1E00E010E046
:100BC000E199FECF0F5F1F4FF70161917F01C801CF
:100BD0000E94B6128FEC97E00197F1F700C0000079
:100BE0000E30110569F778942F960FB6F894DEBF92
:100BF0000FBECDBFCF91DF911F910F91FF90EF906E
:100C0000DF90CF90BF90AF909F9008956AE00E94D0
:100C100030108295807F890F0895CF93DF93809164
:100C200008028F770E94580580932801809109025D
:100C30000E9458058093290180915A01882341F030
:100C400080910A028F710E94580580932A0107C083
:100C500080910A028F730E94580580932A01809127
:100C60000B020E94580580932B0180910C020E9478
:100C7000580580932C0180910D020E9458058093A5
:100C80002D0180910E020E94580580932E010E9432
:100C90000E0120912A0100D000D000D0EDB7FEB7A0
:100CA000319680E593E0ADB7BEB712969C938E93D4
:100CB000119788EF90E093838283248315820E94AA
:100CC000A4102DB73EB72A5F3F4F0FB6F8943EBF32
:100CD0000FBE2DBF81E061E00E94020180912A01D8
:100CE0008A3018F480E20E94D800C0E5D3E0CE013B
:100CF0000E94150181E063E00E9402018AE30E94E4
:100D0000D8002091290100D000D000D0EDB7FEB767
:100D10003196ADB7BEB71296DC93CE93119788EF9C
:100D200090E093838283248315820E94A4102DB7C0
:100D30003EB72A5F3F4F0FB6F8943EBF0FBE2DBFA0
:100D400081E064E00E940201809129018A3018F458
:100D500080E30E94D800C0E5D3E0CE010E941501D7
:100D600081E066E00E9402018AE30E94D80020919F
:100D7000280100D000D000D0EDB7FEB73196ADB756
:100D8000BEB71296DC93CE93119788EF90E09383D1
:100D90008283248315820E94A4102DB73EB72A5F58
:100DA0003F4F0FB6F8943EBF0FBE2DBF81E067E006
:100DB0000E940201809128018A3018F480E30E9489
:100DC000D80080E593E00E94150180915A018823A4
:100DD00079F081E061E00E94020180910A0285FFC2
:100DE00004C080E50E94D80003C081E40E94D800BE
:100DF00080913001882329F080913101813009F000
:100E0000D2C082E061E00E94020180912B01843017
:100E1000F9F0853038F4823089F08330A0F48130E5
:100E200051F507C08630F1F08630B8F0873019F5FB
:100E30001EC08BEF90E00E9415011DC08FEF90E067
:100E40000E94150118C083E091E00E94150113C0B3
:100E500087E091E00E9415010EC08BE091E00E94B6
:100E6000150109C08FE091E00E94150104C083E1E3
:100E700091E00E94150120912C0100D000D000D0FB
:100E8000EDB7FEB7319680E593E0ADB7BEB71296E9
:100E90009C938E93119788EF90E0938382832483B1
:100EA00015820E94A4102DB73EB72A5F3F4F0FB6A0
:100EB000F8943EBF0FBE2DBF82E065E00E940201A4
:100EC00080912C018A3018F480E20E94D800C0E59D
:100ED000D3E0CE010E94150182E067E00E9402018A
:100EE0008FE20E94D80020912D0100D000D000D0C8
:100EF000EDB7FEB73196ADB7BEB71296DC93CE9381
:100F0000119788EF90E093838283248315820E9457
:100F1000A41080912D012DB73EB72A5F3F4F0FB629
:100F2000F8943EBF0FBE2DBF8A3018F480E30E94B4
:100F3000D800C0E5D3E0CE010E94150182E06AE04E
:100F40000E9402018FE20E94D80020912E0100D061
:100F500000D000D0EDB7FEB73196ADB7BEB7129650
:100F6000DC93CE93119788EF90E093838283248360
:100F700015820E94A4102DB73EB72A5F3F4F0FB6CF
:100F8000F8943EBF0FBE2DBF82E06BE00E940201CD
:100F900080912E018A3018F480E30E94D80080E509
:100FA00093E00E941501DF91CF910895806487B985
:100FB000369A349BFECF84B195B108950F931F9359
:100FC00090E09C01B901882777FD8095982F0E94B9
:100FD000DC0D29EC36E74EE250E40E94410D0E9400
:100FE000A90D062F862F6AE00E943010182F81E08D
:100FF0006DE00E940201812F805D0E94D800802F49
:10100000805D110F912F990F990F190F811B0E946D
:10101000D8008FED0E94D80087E191E00E94150171
:101020001F910F91089580E00E94D60790E09C01E7
:10103000B901882777FD8095982F0E94DC0D29EC57
:1010400036E74EE250E40E94410D0E94AE0D60353D
:1010500050F0809157018F5F809357011092580193
:10106000833049F00895809158018F5F8093580133
:101070001092570109C0AB98109257018091590105
:10108000882311F40E947602809158018A3018F06A
:10109000AB9A109258010895E199FECF80E090E05C
:1010A0000E94AE12803F09F460C0E199FECF80E05B
:1010B00090E060EF0E94B6128FEC97E00197F1F795
:1010C00000C0000010925D01809128010E94060678
:1010D00080930802809129010E94060680930902EC
:1010E00080915A018823A1F080912A010E9406066E
:1010F00090915A0120912F012295220F207E9295E6
:10110000990F990F907C922B892B80930A0206C02D
:1011100080912A010E94060680930A0280912B0189
:101120000E94060680930B0280912C010E94060605
:1011300080930C0280912D010E94060680930D027F
:1011400080912E010E94060680930E020E942A01C1
:1011500080E068E072E047E00E9458018FEC97E081
:101160000197F1F700C00000089580915D01882388
:1011700009F0A8CF0895EF92FF920F931F93CF939A
:10118000DF93C82FD0E0FE01E25AFE4F2081822F6C
:101190008150803F08F04EC0822F64E60E943010DC
:1011A000182FE82E8CE9189F802D1124280F822FEC
:1011B0006AE00E943010092F822F90E0801B910975
:1011C0006AE070E00E943C10F62E82E06DE00E9422
:1011D0000201FE01ED59FE4F8081803F19F48AE241
:1011E0000E94D800CD59DE4F88818F3019F48BE2F0
:1011F0000E94D80082E06EE00E940201EE2029F4F5
:1012000082E06FE00E94020104C0812F805D0E9495
:10121000D800FF2039F4EE2029F482E060E10E943A
:10122000020104C08F2D805D0E94D800802F805D58
:101230000E94D800DF91CF911F910F91FF90EF9006
:1012400008951F93182F0E940E010E940D0680E042
:101250000E94D6070E94DE0782E061E00E94020140
:1012600089E191E00E941501812F805D0E94D800E4
:101270001230B1F0133018F41130A9F505C0133055
:10128000D9F0143081F524C0AF9905C08DE191E00B
:101290000E94150128C082E291E00E94150123C03E
:1012A000AE9905C08DE191E00E9415011CC082E25B
:1012B00091E00E94150117C0AD9905C08DE191E044
:1012C0000E94150110C082E291E00E9415010BC03E
:1012D000AC9905C08DE191E00E94150104C082E245
:1012E00091E00E941501812F0E94BB081F91089573
:1012F000823021F4637061F48DE10895843051F0FF
:10130000863051F0893051F08B3051F48EE10895E0
:101310008CE108958EE108958EE108958EE108959F
:101320008FE10895EF92FF920F931F93CF93DF9376
:101330008B01EC01C958D2412DE631E0429FC0013A
:10134000439F900D529F900D1124C80FD91F6230FA
:10135000710570F0862F642F0E94780990E041E0BB
:10136000C80FD91F4F5F242F30E020173107C0F37B
:101370007E018C2F9F2DDF91CF911F910F91FF90B8
:10138000EF9008959CE3699FB0011124680F711DCF
:10139000862F972F0895CF93DF93F894C0E0D0E085
:1013A000E199FECF2196CE016FEF0E94B6128FEC2D
:1013B00097E00197F1F700C00000C033D10581F735
:1013C0007894DF91CF9108957F928F929F92AF9200
:1013D000BF92CF92DF92EF92FF920F931F93DF9312
:1013E000CF93CDB7DEB766970FB6F894DEBF0FBECA
:1013F000CDBFF894CC24DD246894C1F8CC0EDD1E5A
:10140000760100E010E0E199FECF0F5F1F4FC801A9
:101410000E94AE12F70181937F018FEC97E0019754
:10142000F1F700C000000E30110569F788858F3F85
:1014300061F489858F3F49F48A858F3F31F48B852C
:101440008F3F19F40E94CB09B9C080910A028F73B3
:101450000E9458058A8B12E001E00F2EF8E0AF2EB3
:10146000F2E0BF2EF02D88249924689484F88C0E25
:101470009D1E02C00F5F1F5F0230E1F3E02EFF24CC
:10148000F501EE0DFF1D80810E945805F401EE0D5F
:10149000FF1D8083173070F36D894E898C8990E031
:1014A00070E050E00E9492097C016E814F818D8135
:1014B00090E070E050E00E9492094C0189896A89AD
:1014C0000E94C2098C018A816B810E94C209081B9B
:1014D000190BE818F90820EA35E0E29EC001E39E06
:1014E000900DF29E900D11245801A80EB91EFE0118
:1014F0007196CE014796D60121912D93E817F907F1
:10150000D9F7A114B10449F4FE01389680E090E0C7
:101510004EE551E023E631E02CC08E01085F1F4FFD
:10152000EE24E3947A2CFF24FA944801F8012081F8
:10153000822F90E0A816B90618F42A19208312C049
:10154000F801A082772059F0F8018481803F21F4CE
:101550008E2D0E94F70103C08E2D0E94DA01F40146
:10156000F082F482E3940F5F1F4FFE2DF530E9F611
:10157000CBCF019661916F3F49F0DA01A80FB91FF7
:101580006C936381D901A80FB91F6C9384309105C6
:1015900081F700E010E0E199FECF0F5F1F4FF601E9
:1015A00061916F01C8010E94B6128FEC97E001971C
:1015B000F1F700C000000E30110569F778946696C7
:1015C0000FB6F894DEBF0FBECDBFCF91DF911F9154
:1015D0000F91FF90EF90DF90CF90BF90AF909F90D2
:1015E0008F907F900895CF93DF93C82FD0E0FE01B6
:1015F000ED59FE4F9081903F19F40E94F70108C009
:10160000FE01ED59FE4F90819F3011F40E94DA01E6
:10161000FE01E25AFE4F1082CD59DE4F18828091B2
:101620005F018F3F61F4809160018F3F41F48091B1
:1016300061018F3F21F4809162018F3F11F00E9480
:10164000CB09DF91CF9108950F931F93CF93DF9331
:10165000C0E0D0E00EE511E09E012F5F822F2196C1
:10166000F801EC0FFD1F9081913FA8F4F801EC0FF9
:10167000FD1F9081992379F0F801EC0FFD1F9081F7
:10168000913019F40E94F30A06C0F801EC0FFD1F17
:10169000808181508083C430D105F1F6DF91CF91F4
:1016A0001F910F91089580E00E9430018FEC97E028
:1016B0000197F1F700C0000088E092E067E00E9427
:1016C0009701809108020E9458059091280189177E
:1016D00009F480C0809108028F770E94580580939A
:1016E00028012091280100D000D000D0EDB7FEB72E
:1016F000319680E593E0ADB7BEB712969C938E937A
:10170000119788EF90E093838283248315820E944F
:10171000A4108DB79EB706960FB6F8949EBF0FBE65
:101720008DBF81E067E00E940201809128018A302C
:1017300018F480E30E94D80080E593E00E94150130
:10174000809128018823C1F40E94240B0E940D0679
:1017500080E00E94D6070E94DE0780913001982F1A
:101760009150943010F40E942109809159018823EE
:1017700019F081508093590180912801813039F00E
:10178000809156018F3671F08F5F80935601809162
:101790005601893139F48FE6809356011092550134
:1017A0000E94C503809128016AE00E9430109923AD
:1017B00031F480915501882311F40E942E05809107
:1017C000280180FF07C00E94130880E00E94D6070E
:1017D0000E94DE0708958FEF84BB85BB17BA88BBD4
:1017E00011BA82BB0E94DE000E940E010E944C08CA
:1017F00080E00E9430018FEC97E00197F1F700C084
:10180000000088E092E067E00E9497010E940D06C8
:101810001092310185B78A6085BF8BB7806E8BBF10
:1018200010BC83E389B91BB886E880BD88E98AB912
:10183000789485E886B980E487B980E00E94D6076D
:101840000E94DE07109230010E94E4090E941402F7
:101850000E94530B8FEF9FECA7E081509040A04077
:10186000E1F700C00000F4CF1F920F920FB60F9265
:1018700011248F939F93EF93FF939CB180914F011D
:10188000E0E1F2E0E80FF11D90838F5F80934F015C
:10189000FF91EF919F918F910F900FBE0F901F902E
:1018A00018951F920F920FB60F9211242F933F930A
:1018B0004F935F936F937F938F939F93AF93BF9358
:1018C000EF93FF93809130018F5F809330018530DB
:1018D00058F00E940E01109230010E940D0680E027
:1018E0000E94D6070E94DE0780913001982F915008
:1018F000943010F40E942109FF91EF91BF91AF91B4
:101900009F918F917F916F915F914F913F912F9117
:101910000F900FBE0F901F9018951F920F920FB649
:101920000F9211242F933F934F935F936F937F9365
:101930008F939F93AF93BF93EF93FF938091300169
:10194000823081F0833018F48130E9F405C08330AF
:1019500079F08430C1F412C0AF9902C0AF9A13C0BD
:10196000AF9811C0AE9902C0AE9A0DC0AE980BC030
:10197000AD9902C0AD9A07C0AD9805C0AC9902C040
:10198000AC9A01C0AC9880913001982F915094305E
:1019900010F40E942109FF91EF91BF91AF919F91A7
:1019A0008F917F916F915F914F913F912F910F9008
:1019B0000FBE0F901F9018955058BB27AA270ED026
:1019C0004DC13ED130F043D120F031F49F3F11F4AE
:1019D0001EF433C10EF4E095E7FB29C1E92F4FD186
:1019E00080F3BA17620773078407950718F071F43C
:1019F0009EF567C10EF4E0950B2EBA2FA02D0B01BA
:101A0000B90190010C01CA01A0011124FF27591B43
:101A100099F0593F50F4503E68F11A16F040A22F49
:101A2000232F342F4427585FF3CF469537952795BA
:101A3000A795F0405395C9F77EF41F16BA0B620BB9
:101A4000730B840BBAF09150A1F0FF0FBB1F661F00
:101A5000771F881FC2F70EC0BA0F621F731F841F43
:101A600048F4879577956795B795F7959E3F08F069
:101A7000B3CF9395880F08F09927EE0F9795879528
:101A800008950CD0EBC0E3D040F0DAD030F021F470
:101A90005F3F19F0CCC0511115C1CFC0F0D098F301
:101AA0009923C9F35523B1F3951B550BBB27AA27DF
:101AB00062177307840738F09F5F5F4F220F331F51
:101AC000441FAA1FA9F333D00E2E3AF0E0E830D01D
:101AD00091505040E695001CCAF729D0FE2F27D020
:101AE000660F771F881FBB1F261737074807AB07EE
:101AF000B0E809F0BB0B802DBF01FF2793585F4F63
:101B00002AF09E3F510568F092C0DCC05F3FECF3C5
:101B1000983EDCF3869577956795B795F7959F5F27
:101B2000C9F7880F911D9695879597F90895E1E07B
:101B3000660F771F881FBB1F621773078407BA07DA
:101B400020F0621B730B840BBA0BEE1F88F7E09535
:101B5000089504D06894B111B5C0089598D088F064
:101B60009F5790F0B92F9927B751A0F0D1F0660F89
:101B7000771F881F991F1AF0BA95C9F712C0B130A4
:101B800081F09FD0B1E008959CC0672F782F8827FF
:101B9000B85F39F0B93FCCF3869577956795B395E3
:101BA000D9F73EF490958095709561957F4F8F4F52
:101BB0009F4F0895E89409C097FB3EF49095809557
:101BC000709561957F4F8F4F9F4F9923A9F0F92F03
:101BD00096E9BB279395F695879577956795B79581
:101BE000F111F8CFFAF4BB0F11F460FF1BC06F5F67
:101BF0007F4F8F4F9F4F16C0882311F096E911C079
:101C0000772321F09EE8872F762F05C0662371F099
:101C100096E8862F70E060E02AF09A95660F771FAD
:101C2000881FDAF7880F9695879597F9089597F9A1
:101C30009F6780E870E060E008959FEF80EC089572
:101C400000240A941616170618060906089500249B
:101C50000A9412161306140605060895092E039415
:101C6000000C11F4882352F0BB0F40F4BF2B11F489
:101C700060FF04C06F5F7F4F8F4F9F4F089557FDE8
:101C80009058440F551F59F05F3F71F04795880FEA
:101C900097FB991F61F09F3F79F087950895121681
:101CA00013061406551FF2CF4695F1DF08C016162D
:101CB00017061806991FF1CF8695710561050894DE
:101CC0000895E894BB2766277727CB0197F90895F5
:101CD0000BD0C4CFB5DF28F0BADF18F0952309F098
:101CE000A6CFABCF1124EECFCADFA0F3959FD1F3DF
:101CF000950F50E0551F629FF001729FBB27F00DBA
:101D0000B11D639FAA27F00DB11DAA1F649F66270E
:101D1000B00DA11D661F829F2227B00DA11D621F5D
:101D2000739FB00DA11D621F839FA00D611D221F17
:101D3000749F3327A00D611D231F849F600D211DFB
:101D4000822F762F6A2F11249F5750408AF0E1F09E
:101D500088234AF0EE0FFF1FBB1F661F771F881FE7
:101D600091505040A9F79E3F510570F060CFAACF27
:101D70005F3FECF3983EDCF3869577956795B795D2
:101D8000F795E7959F5FC1F7FE2B880F911D9695FC
:101D9000879597F90895FA01EE0FFF1F30962105F8
:101DA000310599F16115710561F48038BFE39B0736
:101DB00049F168949038810561F08038BFEF9B0746
:101DC00041F0992342F5FF3FE1053105210511F16D
:101DD000E8940894E795D901AA2329F4AB2FBE2FE4
:101DE000F85FD0F310C0FF5F70F4A695E0F7F73905
:101DF00050F019F0FF3A38F49F779F930CD00F9072
:101E000007FC905808953EF018CF60E070E080E83D
:101E10009FE308954FE79F775F934F933F932F93EF
:101E20009ED02F913F914F915F9152DF05C019F4E1
:101E30000EF0FDCE46CF01CF2ADFC8F39638C0F7AB
:101E400007F80F92E8942BE33AEA48EB5FE74EDF9E
:101E50000F920F920F924DB75EB70F92C0D0E4E58C
:101E6000F0E016D04F915F91EF91FF91E595EE1F55
:101E7000FF1F49F0FE57E0684427EE0F441FFA9514
:101E8000E1F74195550B32D00F9007FE26C008951B
:101E9000DF93CF931F930F93FF92EF92DF927B011B
:101EA0008C01689405C0DA2EEF011EDFFE01E89474
:101EB000A5912591359145915591AEF3EF018EDDB8
:101EC000FE019701A801DA9479F7DF90EF90FF9077
:101ED0000F911F91CF91DF9108959B01AC0160E0BC
:101EE00070E080E89FE3CDCDA2CEACC0D0DEE8F3B9
:101EF0009923D9F3940F511DBBF39150504094F0A6
:101F000059F0882332F0660F771F881F9150504098
:101F1000C1F79E3F510544F7880F911D969587950F
:101F200097F908955F3FACF0983E9CF0BB278695EB
:101F300077956795B79508F4B1609395C1F7BB0F96
:101F400058F711F460FFE8CF6F5F7F4F8F4F9F4FBF
:101F5000E3CFB8CE0EF076C070CE689468CE97DE30
:101F6000C8F39923D1F3C6F3DF93CF931F930F9355
:101F7000FF92C92FDD2788232AF02197660F771F4C
:101F8000881FDAF720E030E040E85FEB9FE3883914
:101F900020F0803E30F021968F770FDDECE7F0E007
:101FA00003C00BDDE9EAF0E073DF8B01BE01EC0159
:101FB000FB2E6F5771097595771F880B990BFCDD08
:101FC00028E132E741E35FE38FDEAF2D9801AE01F8
:101FD000FF900F911F91CF91DF9100DD3FCEFA016D
:101FE000DC01AA0FBB1F9B01AC01BF5728F42227BD
:101FF0003327442750781FC0B75188F4AB2F0024F3
:10200000469537952795011CA395D2F3002069F0DA
:10201000220F331F441FB395DAF30DD0CDCC6130BE
:102020007105A0E88A07B94630F49B01AC01662728
:10203000772788279078309621F020833183428358
:10204000538308959F3F31F0915020F48795779501
:102050006795B795880F911D9695879597F908957F
:10206000991B79E004C0991F961708F0961B881FEA
:102070007A95C9F78095089597FB092E07260AD00F
:1020800077FD04D00CD006D000201AF4709561952D
:102090007F4F0895F6F7909581959F4F0895AA1B5D
:1020A000BB1B51E107C0AA1FBB1FA617B70710F043
:1020B000A61BB70B881F991F5A95A9F78095909575
:1020C000BC01CD0108950F931F93CF93DF938C0133
:1020D000EB018B8181FF1BC082FF0DC02E813F81F0
:1020E0008C819D812817390764F4E881F981019377
:1020F000F983E88306C0E885F985802F0995009764
:1021000031F48E819F8101969F838E8302C00FEFF1
:102110001FEFC801DF91CF911F910F910895A0E0AB
:10212000B0E0E5E9F0E10C944713FE0135966191CA
:1021300071918091570390915803AF010E94C7108D
:102140002096E2E00C946313AEE0B0E0EAEAF0E13E
:102150000C9445130D891E8986E08C831A830983AC
:102160008FEF9FE79E838D839E01275E3F4FCE01B9
:1021700001966F89788DA9010E94C710EF81F885BB
:10218000E00FF11F10822E96E4E00C946113ACE096
:10219000B0E0EDECF0E10C9437136C011B018A0107
:1021A000FC0117821682838181FFD1C12E01089420
:1021B000411C511CF6019381F10193FD859193FF20
:1021C00081911F01882309F4BEC1853239F493FD42
:1021D000859193FF81911F01853229F490E0B6012A
:1021E0000E946310E7CFEE24FF2420E02032B0F4F9
:1021F0008B3269F08C3228F4803251F0833271F4E2
:102200000BC08D3239F0803349F421602CC022603C
:10221000246029C0286027C0206125C027FD2CC06C
:10222000382F30533A3098F426FF08C08E2D880F8F
:10223000E82EEE0CEE0CE80EE30E15C08F2D880F85
:10224000F82EFF0CFF0CF80EF30E20620CC08E323D
:1022500021F426FD78C1206406C08C3611F4206874
:1022600002C0883649F4F10193FD859193FF819175
:102270001F01882309F0BACF982F9554933018F096
:102280009052933028F40C5F1F4FFFE3F9830DC089
:10229000833631F0833771F0833509F060C022C096
:1022A000F801808189830E5F1F4F420171E0A72EE4
:1022B000B12C16C062E0662E712C600E711EF80102
:1022C0008080918026FF03C06E2D70E002C06FEF0A
:1022D0007FEFC4012C870E94CE125C0183012C8504
:1022E0002F7717C052E0652E712C600E711EF80119
:1022F0008080918026FF03C06E2D70E002C06FEFDA
:102300007FEFC4012C870E94C3125C012C852068DA
:10231000830123FD20C008C080E290E0B6012C8735
:102320000E946310FA942C858F2D90E0A816B906B0
:1023300098F311C0F40127FD859127FF81914F018A
:1023400090E0B6012C870E9463102C85F110FA945E
:102350000894A108B108A114B10461F7F1C0843652
:1023600011F0893649F527FF08C0F80160817181B5
:10237000828193810C5F1F4F09C0F80160817181D8
:10238000882777FD8095982F0E5F1F4F4FE6B42E5C
:10239000B22297FF09C090958095709561957F4F07
:1023A0008F4F9F4FF0E8BF2AA2012AE030E00E9441
:1023B000D912782E741845C0853731F43FEEB32E0C
:1023C000B2222AE030E025C099EFB92EB2228F3632
:1023D000C1F0803720F4883509F0B5C00DC08037D2
:1023E00021F0883709F0AFC002C020E1B22AB4FE64
:1023F0000BC084E0B82A08C0B4FE09C0E6E0BE2ADB
:1024000006C028E030E005C020E130E002C020E155
:1024100032E0B7FE08C0F80160817181828193814A
:102420000C5F1F4F07C0F8016081718180E090E070
:102430000E5F1F4FA2010E94D912782E7418FFE779
:10244000BF22B6FE0BC02EEFB2227E1438F4B4FECB
:1024500007C0B2FC05C08FEEB82202C0A72C01C095
:10246000AE2C8B2D90E0B4FE0DC0FE01E70DF11DEA
:102470002081203319F4E9EEBE2209C0A394B2FEF4
:1024800006C004C086789070009709F0A3948B2C46
:102490009924B3FC14C0B0FE0FC0AF1428F4E72C8D
:1024A000EF0CEA18AF2C08C0E72C06C080E290E0E1
:1024B000B6010E946310A394AF14C0F304C0AF141C
:1024C00010F4FA1801C0FF2484FE0FC080E390E0EE
:1024D000B6010E94631082FE1FC081FE03C088E522
:1024E00090E010C088E790E00DC0C401867890703D
:1024F000009791F081FC02C080E201C08BE2B7FC42
:102500008DE290E0B6010E94631006C080E390E087
:10251000B6010E946310EA947E14C0F37A94F2012B
:10252000E70DF11D808190E0B6010E9463107720D5
:10253000A9F706C080E290E0B6010E946310FA9409
:10254000FF20C1F737CEF6012681378102C02FEF79
:102550003FEFC9012C96E2E10C945313E199FECFB1
:102560009FBB8EBBE09A99278DB30895262FE199E2
:10257000FECF9FBB8EBB2DBB0FB6F894E29AE19ABB
:102580000FBE01960895FC01059061507040011046
:10259000D8F7809590958E0F9F1F0895FC0161508C
:1025A000704001900110D8F7809590958E0F9F1F75
:1025B0000895FA01AA27283051F1203181F1E894D9
:1025C0006F936E7F6E5F7F4F8F4F9F4FAF4FB1E026
:1025D0003ED0B4E03CD0670F781F891F9A1FA11D21
:1025E000680F791F8A1F911DA11D6A0F711D811D22
:1025F000911DA11D20D009F468943F912AE0269FE7
:1026000011243019305D3193DEF6CF010895462F45
:102610004770405D4193B3E00FD0C9F7F6CF462F26
:102620004F70405D4A3318F0495D31FD405241938F
:1026300002D0A9F7EACFB4E0A6959795879577954C
:102640006795BA95C9F700976105710508959B01D3
:10265000AC010A2E06945795479537952795BA955C
:10266000C9F7620F731F841F951FA01D08952F9235
:102670003F924F925F926F927F928F929F92AF9212
:10268000BF92CF92DF92EF92FF920F931F93CF935F
:10269000DF93CDB7DEB7CA1BDB0B0FB6F894DEBFF6
:1026A0000FBECDBF09942A88398848885F846E841C
:1026B0007D848C849B84AA84B984C884DF80EE8066
:1026C000FD800C811B81AA81B981CE0FD11D0FB66F
:1026D000F894DEBF0FBECDBFED010895F894FFCF93
:1026E00041540D0041542B434D47533D223039375F
:1026F00033343731333539220D0053494D353438B1
:10270000432052656164792121210043414E4820D4
:1027100042414F204E4849455420444F2051554195
:102720002043414F0041542B434D47523D310D0052
:1027300041542B434D47443D310D00544225643AEA
:102740002025642025642025640D544225643A2008
:1027500025642025642025640D544225643A2025F3
:10276000642025642025640D544225643A202564A4
:102770002025642025640D0025690053756E004DE9
:102780006F6E0054756500576564005468750046A7
:10279000726900536174004300544220003A204F94
:1027A0006E003A204F6666002D1402050A010D01E5
:1027B000FF010000000200000000D800000000003F
:0E27C00000000002000000008A00000000007F
:00000001FF
